:100000000C9499000C9400000C9400000C940000D7
:100010000C9400000C9400000C9400000C94000060
:100020000C9400000C94C6000C9400000C9400008A
:100030000C9400000C9400000C9400000C94000040
:100040000C9400000C9400000C9400000C94000030
:100050000C9400001027E80364000A00010000105F
:100060000001100001000000000000000D00010070
:10007000C0F9A4B0999282F88090256425642F2558
:100080003032642F2530326400253032643A253016
:1000900032643A25303264202025642563430020F1
:1000A0002020253032643A253032643A25303264DB
:1000B00000253032642F253032642F253032642001
:1000C0004F6B2043616E63656C00202020205361DC
:1000D00076696E672E2E2E2020202020686D6163A9
:1000E00068696E6572792E69720020202020436154
:1000F0006E63656C2E2E2E2020202020686D61639B
:1001000068696E6572792E69720080C00800060009
:1001100066000100CA016E000A00CB0170002000D9
:100120006001CA0020008001EA000200D7010A0134
:100130000000F894EE27ECBBF1E0FBBFEBBFE5BF9E
:100140008DE0A2E0BB27ED938A95E9F780E094E08B
:10015000A0E6ED930197E9F7ECE0F1E08591959148
:10016000009761F0A591B59105901590BF01F00140
:1001700005900D920197E1F7FB01F0CFEFE5EDBFA0
:10018000E4E0EEBFC0E6D1E00C943C010A921A9282
:100190009A93AA93BA93EA93FA93EFB7EA93ECE5AA
:1001A000E2BFE4E0E61509F46624662081F4AA982B
:1001B000AB98AC98AD9AAE98AF98A42DB0E0EAE0B9
:1001C000F0E00E946D09E553FE4FE081E2BBE1E003
:1001D000E61581F4AA98AB98AC9AAD98AE98AF9812
:1001E000A42DBB27EAE0F0E00E947209E553FE4F20
:1001F000E081E2BBE2E0E61589F4AA98AB9AAC98FC
:10020000AD98AE98AF98A72DB0E0EAE0F0E00E947C
:100210006D09E553FE4FE081E2BB9798E3E0E615F8
:1002200089F4AA9AAB98AC98AD98AE98AF98A72DE0
:10023000BB27EAE0F0E00E947209E553FE4FE0813F
:10024000E2BB97986394E991EFBFF991E991B99175
:10025000A9919991199009901895AA93E881E06461
:10026000E7B98BE18A95F1F7369A349BFECF349A41
:10027000E4B1F5B10C94D607E1E04E2E7E2E5E2E51
:10028000E093C701E093C801E093C901E3E0E3BF55
:10029000ECE5E2BFE0E0ECBFEFBDEEBDEDBDECBDD7
:1002A000E7BDE6BDEBBDEABDE9BDE8BDE2BDE5BD2C
:1002B000E4BDE3BDE1E0E9BFE0E0E5BFE4BFEAB9EA
:1002C000E0E8E8B9E0E4E7B9E3E8E6B9E0E0E0BF98
:1002D000EDB9E6BF0E940808E0E0EA93EA93A0E0E7
:1002E00000D3A0E10E949D077894A29AA39AA49AB1
:1002F000A59AEFEFE1BB96989798D798DF9AD69892
:10030000DE9AD598DD9AA0E0A8DFE093D501F093BE
:10031000D60104D0CF9B95D0F6CFFFCFE4E0F0E03C
:10032000FA93EA93E7E0F0E0FA93EA93A5E0B0E00D
:10033000F7D2E6ECF1E0FA93EA93E7ECF1E0FA9316
:10034000EA93E8ECF1E0FA93EA93A9ECB1E037D351
:10035000E4E0EA93A0E00E944707E0EAF1E0FA93C4
:10036000EA93EAE7F0E0FA93EA93F6010E9455096E
:100370000E949609E091C901FF27662777270E940E
:100380009609E091C801FF27662777270E94960902
:10039000E091C701FF27662777270E94960980E131
:1003A0000E94EB066496A0EAB1E00E948C07E2E0AE
:1003B000EA93A1E00E944707E091D501F091D601B0
:1003C0000E9455090E94C908A8E4B1EE8AEF9EE395
:1003D0000E94F708A5EDB1E00E949208ED93FC930E
:1003E000E0EBF1E0FA93EA93E9E8F0E0FA93EA93BC
:1003F000E42DFF27662777270E949609E72DFF2720
:10040000662777270E949609E52DFF27662777271D
:100410000E949609E091D501F091D6010E945509FC
:100420000E949609EFEDF0E060E070E00E9496090E
:1004300084E10E94EB066896A0EBB1E00E948C0775
:1004400008954092C0017092C1015092C201E091A2
:10045000C901E093C501E091C801E093C401E091B6
:10046000C701E093C30188249924EAE0F0E08E16E6
:100470009F064CF453DFA4E6B0E00E945908F40153
:1004800031964F01F2CFCF992BC20E945807CF9BD4
:10049000FECFE0EAF1E0FA93EA93EFE9F0E0FA93B5
:1004A000EA93E091C001FF27662777270E9496090B
:1004B000E091C101FF27662777270E949609E09106
:1004C000C201FF27662777270E9496098CE00E94C9
:1004D000EB066096E0E0EA93A0E00E944707A0EAFE
:1004E000B1E00E948C07E0EAF1E0FA93EA93E1EBD5
:1004F000F0E0FA93EA93E091C501FF27662777279A
:100500000E949609E091C401FF27662777270E9481
:100510009609E091C301FF27662777270E94960975
:100520008CE00E94EB066096E0E0EA93A1E00E9476
:100530004707A0EAB1E00E948C07AA24BB240A2C3A
:100540000B2809F0CDC1CE9900C1A091CA01A130FC
:1005500061F4E091C001EF5FE093C001A091C001A0
:10056000A93118F0E0E0E093C001A091CA01A230E7
:1005700061F4E091C101EF5FE093C101A091C1017D
:10058000AD3318F0E0E0E093C101A091CA01A330BF
:1005900061F4E091C201EF5FE093C201A091C2015A
:1005A000AD3318F0E0E0E093C201A091CA01A4309D
:1005B00079F4E091C501EF5FE093C501A091C50119
:1005C000A43630F0E0E0E093C501F60131966F010A
:1005D000A091CA01A53061F4E091C401EF5FE093FE
:1005E000C401A091C401AD3018F0E0E0E093C40173
:1005F000A091CA01A63061F4E091C301EF5FE093DE
:10060000C301A091C301A03218F0E0E0E093C30160
:10061000A091CA01A73039F5E091C001EA93E091B9
:10062000C101EA93A091C201ABD1E7E0EA93E09166
:10063000C301EA93E091C401EA93A091C501F5D109
:10064000E0E0E093CA010E945807A0E6B1E00E94F2
:100650008C07A8EBBBE00E9459080E945807E1E014
:10066000F0E05F0172C0A091CA01A83099F4E0E007
:10067000E093CA010E945807A0E8B1E00E948C07ED
:10068000A8EBBBE00E9459080E945807E1E0F0E0A7
:100690005F015BC00E945807E0EAF1E0FA93EA9339
:1006A000EFE9F0E0FA93EA93E091C001FF276627B3
:1006B00077270E949609E091C101FF2766277727D7
:1006C0000E949609E091C201FF27662777270E94C2
:1006D00096098CE00E94EB066096E0E0EA93A0E0C9
:1006E0000E944707A0EAB1E00E948C07E0EAF1E02F
:1006F000FA93EA93E1EBF0E0FA93EA93E091C50113
:10070000FF27662777270E949609E091C401FF27FB
:10071000662777270E949609E091C301FF27662785
:1007200077270E9496098CE00E94EB066096E0E035
:10073000EA93A1E00E944707A0EAB1E00E948C077B
:10074000ACE2B1E00E945908FECE0A2C0B2809F059
:10075000C6C0A091CA01A13041F4E4E0EA93A0E050
:100760000E944707AFE00E943B07A091CA01A23058
:1007700041F4E7E0EA93A0E00E944707AFE00E945F
:100780003B07A091CA01A33041F4EAE0EA93A0E05C
:100790000E944707AFE00E943B07A091CA01A43026
:1007A00041F4E1E0EA93A1E00E944707AFE00E9434
:1007B0003B07A091CA01A53041F4E4E0EA93A1E02F
:1007C0000E944707AFE00E943B07A091CA01A630F4
:1007D00041F4E6E0EA93A1E00E944707AFE00E94FF
:1007E0003B07A091CA01A73041F4E9E0EA93A1E0F8
:1007F0000E944707AFE00E943B07A091CA01A830C2
:1008000041F4ECE0EA93A1E00E944707AFE00E94C8
:100810003B07CF9964C0E091CA01EF5FE093CA0142
:10082000A091CA01A93019F4E1E0E093CA01CF9B7D
:10083000FECF0E945807E0EAF1E0FA93EA93EFE96D
:10084000F0E0FA93EA93E091C001FF27662777274B
:100850000E949609E091C101FF27662777270E9431
:100860009609E091C201FF27662777270E94960923
:100870008CE00E94EB066096E0E0EA93A0E00E9424
:100880004707A0EAB1E00E948C07E0EAF1E0FA93A2
:10089000EA93E1EBF0E0FA93EA93E091C501FF27D8
:1008A000662777270E949609E091C401FF276627F3
:1008B00077270E949609E091C301FF2766277727D3
:1008C0000E9496098CE00E94EB066096E0E0EA93B5
:1008D000A1E00E944707A0EAB1E00E948C072FCE5A
:1008E0000895AA93EA81E370EA83E981E03019F080
:1008F000EA81E061EA83E881E03019F0EA81E068AA
:10090000EA830E940D08A0ED0E944108A7E00E9422
:100910004108AA810E9441080E941C080C949B0770
:10092000BA93AA930E940D08A0ED0E944108A0E08E
:100930000E9441080E941C080E940D08A1ED0E941F
:100940004108A1E00E942608AE2F0E94D807A88186
:10095000B981EC93A1E00E942608AE2F0E94D8072F
:10096000AA81BB81EC93A0E00E942608AE2F0E94D2
:10097000D807AC81BD81EC930E941C08269608958F
:10098000AA930E940D08A0ED0E944108A0E00E94D9
:100990004108A8810E94E507AE2F0E944108A98165
:1009A0000E94E507AE2F0E944108AA810E94E50738
:1009B000AE2F0E9441080E941C080C949B07BA931A
:1009C000AA930E940D08A0ED0E944108A3E00E9496
:1009D00041080E941C080E940D08A1ED0E944108D8
:1009E000A1E00E942608AE81BF81EC93A1E00E94A5
:1009F0002608AE2F0E94D807AC81BD81EC93A1E000
:100A00000E942608AE2F0E94D807AA81BB81EC93D2
:100A1000A0E00E942608AE2F0E94D807A881B981C5
:100A2000EC930E941C0828960895AA930E940D0832
:100A3000A0ED0E944108A3E00E944108AB810E9402
:100A40004108AA810E94E507AE2F0E944108A981B2
:100A50000E94E507AE2F0E944108A8810E94E50789
:100A6000AE2F0E9441080E941C0824960895BA9354
:100A7000AA931A930A93AA81BB8112960E948E09A7
:100A8000309759F1AA81BB8114960E948E098F017B
:100A9000309761F00230E0E01E0798F0F8013197DE
:100AA0008F01AA81BB811496ED93FC93AA81BB812F
:100AB0001296ED91FD913196FE93EE933197AC81B4
:100AC000A083AA81BB810E948E09FF232AF0ED91A9
:100AD000FD913196FE93EE9306C0AA81BB81EFEFA4
:100AE000FFEFED93FC931981088125960895BA9341
:100AF000AA9326970E949B0910E0AC85BD85E0E093
:100B0000F0E0ED93FC93EA89FB893196EA8BFB8B4D
:100B10003197E4912E2FE03009F455C1E12FE030F8
:100B200059F4253211F411E006C02A93AD85BE8533
:100B3000EF85F889099546C1E130C9F4253239F4C9
:100B40002A93AD85BE85EF85F88909953AC112E0F3
:100B500040E000E02D3211F401E034C12B3211F4F9
:100B60004BE230C1203211F440E22CC102C0E2302D
:100B700039F450E013E0203311F4006823C103C0BE
:100B8000E33009F01FC1203310F02A3308F007C00A
:100B9000AAE05A9F502DE22FE0535E0F13C1E22FBF
:100BA000E33669F4E889F9893497E88BF98BA481F5
:100BB000AA93AD85BE85EF85F889099502C1E33713
:100BC00091F4E889F9893497E88BF98BA889B98978
:100BD00014960E948E09EE83FF83AE81BF810E942E
:100BE000EF071E2F14C0E037B1F4E889F989349774
:100BF000E88BF98BA889B98914960E948E09EE8337
:100C0000FF83AE81BF810E94FB071E2F0860026038
:100C10000F7730E042C0E43611F0E93611F4046099
:100C200002C0E53731F4E4E5F0E0EE83FF8315E040
:100C30000CC0E83511F4086003C0E83709F0C1C002
:100C4000EEE5F0E0EE83FF8314E002FF1AC0E889CE
:100C5000F9893497E88BF98BA889B98914960E9491
:100C60008E09EA87FB87AB85AA232AF40E944909EB
:100C7000EA87FB874DE2403011F01F5F01C00B7F18
:100C80000CC0E889F9893497E88BF98BA889B98970
:100C900014960E948E09EA87FB8700FD15C0151780
:100CA00098F407FF08C002FF04C00B7F242F1150E7
:100CB00001C020E301C020E22A93AD85BE85EF8507
:100CC000F88909955150EBCF312F01FF1BC030300F
:100CD000C1F003FF06C0EE81FF812591EE83FF8303
:100CE00005C0AE81BF812D91AE83BF832A93AD85B0
:100CF000BE85EF85F8890995503009F05150315083
:100D0000E6CF52C020E3EE81FF810E949209E8877E
:100D1000F987EE81FF813296EE83FF83E885F985BE
:100D2000AA85BB85AE17BF0750F02F5FA885B98590
:100D3000EA85FB85EA1BFB0BEA87FB87EFCF2A33AB
:100D400028F003FF02C0295F01C0295D04FD1DC01A
:100D5000213320F4A885B985119709F409C05317E8
:100D600010F000FF01C01AC020E207FF0EC020E310
:100D7000006102FF0AC00B7F4A93AD85BE85EF85F7
:100D8000F8890995503009F051502A93AD85BE85F8
:100D9000EF85F8890995503009F051503150A885F8
:100DA000B985129708F0AECF00FF0BC0503049F064
:100DB0005150E0E2EA93AD85BE85EF85F88909954B
:100DC000F5CF10E0A0CEAC85BD850E948E090E94B3
:100DD000A20964960895FF92F82E26970E949D0915
:100DE000DE011C960E9445090E948E09309719F475
:100DF000EFEFFFEF27C0DE0116960E9445098D0137
:100E0000DE011C960E9445090E948E09EE83FF8335
:100E1000E0E0E887E987DE011A960E9445090E9412
:100E20008E09FA93EA931A930A93E7E3F5E0FA93AB
:100E3000EA93DE011A965BDE9F01AE81BF81E0E09E
:100E4000EC93F9010E94A4092A96FF900895AA93B1
:100E5000E8B3EF70AE2FE881E07FEA2BE8BB8DE0CE
:100E60008A95F1F7C29A8DE08A95F1F7C2988DE0E4
:100E70008A95F1F79BC0AA93A881E9DFE881E29502
:100E8000E883A881E4DF85E88A95F1F78FC0AA930B
:100E9000E881F0E0E952FE4FE081A981AE0FEBDF7F
:100EA000E981E093DB01E881E093DC01229608957B
:100EB000A2E0E1DFA3E0B0E00E945908ACE0DBDF94
:100EC000A1E0D9DFA3E0B0E00E945908E0E0E093A0
:100ED000DC01E093DB010895AA93A881AA3031F0E8
:100EE000E091DD01A091DB01AE1760F0E0E0EA9354
:100EF000A091DC01AF5FA093DC01C9DFA881AA301B
:100F000009F454C0E091DB01EF5FE093DB01C09A8C
:100F1000A881B1DFC0984AC0BA93AA931A93A98155
:100F2000BA81ED91A983BA831E2FE03019F0A12F69
:100F3000D3DFF5CF188123960895AA93E7B3E06F26
:100F4000E7BBBA9AB89AB99AC298C098C198E88192
:100F5000E093DD01E058E093D901E881E054E093AB
:100F6000DA01A4E1B0E00E945908A0E370DF88EC48
:100F700090E00197F1F7A0E36ADF88EC90E0019739
:100F8000F1F7A0E364DF88EC90E00197F1F7A0E2CD
:100F90005EDF88EC90E00197F1F7A8E26CDFA4E057
:100FA0006ADFA5E868DFA6E066DF82DF21960895A4
:100FB000AA93E881E295EF70AE2FAA0FAA0FEA0F6D
:100FC000EE0FA991AF70EA0F0895AA93A991EE27A9
:100FD000AA5012F0E05FFCCFA65FEA0F0895BA9323
:100FE000AA93A991B991EE27FF276D91662311F07D
:100FF0003196FBCF0895BA93AA93AA27BB27E9910C
:10100000F9910590002011F01196FBCFFD01089594
:10101000A898A998A09AA19815C0A198A098EE2781
:101020000000999B0895989B089504D0A19A02D03E
:10103000A09AE1E06DE007C0A19AA09A03D0A09821
:10104000F9DFA1986BE16A95F1F7089578E0A0982F
:10105000F1DF989BFECFEEDF889499990894A09ACF
:10106000F1DFEE1F7A9599F77A2F772311F4A19883
:1010700001C0A19ADFDFA098E5DFA09ADBDFA1988D
:10108000D9CF78E0AA0F10F4A19801C0A19ADADFB5
:10109000A098D0DF989BFECFCDDFA09A7A9591F7EC
:1010A000A198C8DFA098CEDFE1E09999EE27A09A39
:1010B000C1CF109639F080ED97E00197F1F7A89530
:1010C0001197C9F70895552342F4503811F4E0FF01
:1010D00004C03196691F791F6BF050E8572711F44F
:1010E0005F9373C05F3F31F0660F000C57956795B3
:1010F000752F08955F9300200AF073C06CC050E80C
:10110000192E1522880F991F9527550F879550E89E
:10111000072E0522660F771F7527550F67950895CF
:10112000689401C0E8945F93F2DF703818F07F3F55
:1011300008F44BC056E1571BAAF4519558300EF4F1
:10114000593030F0EFEFFFEF6FEF7FE777F91AC01C
:1011500077275523B9F0EE0FFF1F661F771F5A95AB
:10116000D1F710C07727583028F0EF2FF62F672FD0
:101170005850F9CF552331F076956795F795E79557
:101180005A95D1F700200AF488D05F9108956894A9
:1011900001C0E894309760407040B1F0002426F020
:1011A000772312F4009479D0172E7EE1112032F0CB
:1011B0007A95EE0FFF1F661F111CF9CFEF2FF62F48
:1011C000612D5F938ADF5F910895EE27FF276627E1
:1011D00077275F910895EFEFFFEF6FE77FEF5F9164
:1011E0000895EFEFFFEF6FE77FE75F9108955F935B
:1011F00086DF703851F3903841F301240894791F49
:1012000023F41CF300203AF3ECCF0F921F932F939B
:101210003F934F93112722279927689FA0018F9F03
:10122000302D410D591F6B9F300D411D591F8E9F51
:1012300027D0BF9F25D06A9F23D0BE9F1DD0AF9FD0
:101240001BD0AE9F110D291F391F491F591FE32FB6
:10125000F42F652F522F4F913F912F911F910F9097
:1012600066232AF0550FEE1FFF1F661F02C07395FD
:101270004BF229DF5F910895100D211D391F02C027
:10128000200D311D491F591F08950024AF0DB01DB9
:101290000895F195E195F0400895F0956095709569
:1012A000E195FF4F6F4F7F4F08956F2F660F660BCD
:1012B000762F08950024112490E1AA0FBB1F001C73
:1012C000111C0E1A1F0A18F40E0E1F1E01C0A16079
:1012D0009A9599F7FD01D001089512D0EBDF0EF435
:1012E000D8DF0895E894B7FF04C0A095B095119693
:1012F0006894F7FDCEDFDEDFFD010EF4CADF08954E
:10130000E894F7FF02C0C5DF6894B7FF06C0A09558
:10131000B095119600F8039400FA0895ED91FC91B0
:10132000119708950590F491E02D08957A936A93AA
:10133000FA93EA9308955A934A933A932A931A9305
:101340000A9308955D814C813B812A81198108812E
:101350000895FFFFFFFFFFFFFFFFFFFFFFFFFFFFFE
:10136000FFFFFFFFFFFFFFFFFFFFFFFFFFFFFFFF8D
:10137000FFFFFFFFFFFFFFFFFFFFFFFFFFFFFFFF7D
:10138000FFFFFFFFFFFFFFFFFFFFFFFFFFFFFFFF6D
:10139000FFFFFFFFFFFFFFFFFFFFFFFFFFFFFFFF5D
:00000001FF
