:020000000C945E
:10000200FE000C9400000C9400000C9400000C9470
:1000120000000C9400000C9400000C9400000C945E
:1000220000000C942B010C9400000C9400000C9422
:1000320000000C9400000C9400000C9400000C943E
:1000420000000C9400000C9400000C9400000C942E
:100052000000C0F9A430999282F88090000000005C
:100062000000253032643A253032643A2530326459
:10007200202043616E63656C3134253032642F2554
:100082003032642F253032642020204F6B004E6FB7
:10009200726F757A697C5369616872616E6700205C
:1000A2002020536176696E67202020002020205393
:1000B2006176696E672E20200020202053617669C8
:1000C2006E672E2E2000202020536176696E672EE7
:1000D2002E2E200020202063616E63656C696E679E
:1000E2002020200020202063616E63656C696E67AA
:1000F2002E20200020202063616E63656C696E678C
:100102002E2E200020202063616E63656C696E676D
:100112002E2E2E20002020205374617274696E6787
:10012200202020002020205374617274696E672E93
:100132002020002020205374617274696E672E2E75
:1001420020002020205374617274696E672E2E2E57
:1001520020002564DF43003134253032642F2530FE
:1001620032642F2530326400253032643A25303231
:10017200643A25303264000080C02D4E414E0000AA
:1001820001002D4E414E00494E460000050005007B
:100192005E001100600190000D007101A1000D00D0
:1001A2007E01AE000D008B01BB000E009801C8005D
:1001B2001100A60190001000B701D6001000C7017F
:1001C200E6001000D701F6001100E7010601110058
:1001D200F80190000F00090217010F001802260112
:1001E2000F002702350110003602440102006C02A2
:1001F2007A010100730282010000F894EE27ECBB41
:10020200F1E0FBBFEBBFE5BF8DE0A2E0BB27ED93C2
:100212008A95E9F780E094E0A0E6ED930197E9F78B
:10022200EEE8F1E085919591009761F0A591B59185
:1002320005901590BF01F00105900D920197E1F72D
:10024200FB01F0CFEFE5EDBFE4E0EEBFC0E6D1E0A9
:100252000C945E020A921A929A93AA93BA93EA9320
:10026200FA93EFB7EA93E3E8E2BF992039F4AA9A46
:10027200AC98AB98AD98A72D0E94E208E1E0E91591
:1002820039F4AB9AAC98AA98AD98A72D0E94EC08C5
:10029200E2E0E91539F4AC9AAA98AB98AD98A42D8E
:1002A2000E94E208E3E0E91539F4AD9AAC98AB9804
:1002B200AA98A42D0E94EC089394E4E0E91509F4AD
:1002C2009924E991EFBFF991E991B991A991999195
:1002D200199009901895AA93E881E064E7B98BE137
:1002E2008A95F1F7369A349BFECF349AE4B1F5B190
:1002F2000C946504E52DF0E0309721F4E1E0EA93F7
:10030200A0E031C0E130A0E0FA0721F4E4E0EA9392
:10031200A0E029C0E230A0E0FA0721F4E7E0EA9386
:10032200A0E021C0E330A0E0FA0721F4EAE0EA937A
:10033200A0E019C0E430A0E0FA0711F4E3E011C034
:10034200E530A0E0FA0711F4E6E00BC0E630A0E0E9
:10035200FA0711F4E9E005C0E730A0E0FA0739F442
:10036200EDE0EA93A1E00E94E803AFE024D2089511
:10037200E52DF0E0309769F4E0916602EF5FE093DB
:100382006602A0916602A93119F4E0E0E0936602E8
:100392004DC0E130A0E0FA0769F4E0916702EF5F37
:1003A200E0936702A0916702AD3319F4E0E0E093B5
:1003B20067023CC0E230A0E0FA0769F4E09168020B
:1003C200EF5FE0936802A0916802AD3319F4E0E0B8
:1003D200E09368022BC0E430A0E0FA0731F4E09128
:1003E2006902EF5FE093690221C0E530A0E0FA07FD
:1003F20069F4E0916A02EF5FE0936A02A0916A02F7
:10040200AD3019F4E0E0E0936A0210C0E630A0E0FB
:10041200FA0761F4E0916B02EF5FE0936B02A09147
:100422006B02A03219F4E0E0E0936B020E94F6083E
:1004320008950E943409A0E6B1E00E943B09A1E7B9
:10044200B1E00E944209AEE7B1E00E944209ABE886
:10045200B1E00E944209A8E9B1E02AC0E091660237
:10046200EA93E0916702EA93A091680257D1E7E02C
:10047200EA93E0916B02EA93E0916A02EA93A09117
:10048200690274D1D6DF08950E943409A6EAB1E068
:100492000E943B09A7EBB1E00E944209A7ECB1E040
:1004A2000E944209A7EDB1E00E944209A7EEB1E025
:1004B2000E9427040E944D090895E3E0E3BFE3E8A8
:1004C200E2BFE0E0ECBFEFBDEEBDEDBDECBDE7BDD0
:1004D200E6BDEBBDEABDE9BDE8BDE2BDE5BDE4BDFB
:1004E200E3BDE1E0E9BFE0E0EABBE0E8E8B9E0E46F
:1004F200E7B9E3E8E6B9E0E0E0BF0E94B80AE0E06D
:10050200EA93EA93A0E0D8D0A0E10E94380478945C
:10051200EFEFE1BBE0E0EABBDE9ADF9AA29AA39A90
:10052200A49AA59A0E9455090E943409A8EFB1E045
:100532000E943B09A9E0B2E00E944209A8E1B2E0B0
:100542000E944209A7E2B2E00E944209A6E3B2E099
:100552007DD10E944D094CD10E945509ECE0F0E09A
:10056200FA93EA93EBE0F0E0FA93EA93EAE0F0E040
:10057200FA93EA93ADE0B0E0DED0A0E0ACDE66270D
:1005820077270E947F0BDF01CB01E0E0F0E060E81B
:1005920074E40E94570CA0E0B0E48CE995E40E9458
:1005A200090CDF01CB010E9461090E9466098E2EAF
:1005B200E0E00E946B09E4E5F1E0FA93EA93E82DAA
:1005C2000E94740984E00E948B0728960E947A098F
:1005D200E3E0EA93A1E0FBD0E6E4F2E0FA93EA93E7
:1005E200E9E5F1E0FA93EA93ED2D0E947409EA2D10
:1005F2000E947409EB2D0E9474090E947E09E7E0B3
:100602000E946B09EAE6F1E0FA93EA93E42D0E9474
:100612007409E72D0E947409E62D0E9474090E9454
:100622007E09A8ECB0E00E94090BCE9943C0A8EB6A
:10063200BBE00E94090BCE993DC0E0E0E093660268
:10064200E0936702E0936802E0936902E0936A0232
:10065200E0936B02409266027092670260926802B7
:10066200D0926902A0926A02B0926B020E94F608CE
:10067200CE9BFECFCE990AC05394E8E0E51509F46B
:10068200552438DEA4EFB1E00E94090BCF9911C0C6
:10069200E3E0E51519F4F8DEABD00CC0E7E0E515B0
:1006A20019F4DCDEA5D006C063DEA0E9B1E00E9449
:1006B200090BE0CF51CFFFCFAA93EA81E370EA831F
:1006C200E981E03019F0EA81E061EA83E881E03013
:1006D20019F0EA81E068EA830E948309A7E00E9498
:1006E200F10AAA810E948809C0C0BA93AA930E9403
:1006F2008309A0E00E9488090E948C090E94940943
:100702000E949B090E94A109AE2F0E94BF07AC81E3
:10071200BD81EC930E94CC0A26960895AA930E946A
:100722008309A0E00E94A7090E94AE090E94B509B0
:100732000E9488099AC0BA93AA930E948309A3E0EF
:100742000E9488090E948C09AE81BF81EC930E94AD
:100752009B09AC81BD81EC930E949B090E94A10977
:100762000E9494090E94CC0A28960895AA930E9496
:100772008309A3E00E94F10AAB810E94B5090E949D
:10078200AE090E94A7090E9488090C944208AA9304
:10079200E8B3EF70AE2FE881E07FEA2BE8BB8DE093
:1007A2008A95F1F7C29A8DE08A95F1F7C2988DE0A9
:1007B2008A95F1F789C0AA93A881E9DFE881E295D9
:1007C200E883A881E4DF85E88A95F1F77DC0AA93E2
:1007D200E881F0E0E459FD4FE081A981AE0FEBDF43
:1007E200E981E0937002E881E09371022296089514
:1007F200A2E00E94BC09ACE0DEDFA1E00E94BC09DD
:10080200E0E0E0937102E09370020895AA93A88158
:10081200AA3031F0E0917202A0917002AE1760F03E
:10082200E0E0EA93A0917102AF5FA0937102CFDF83
:10083200A881AA3009F448C0E0917002EF5FE0930A
:100842007002C09AA881B7DFC0983EC0BA93AA933B
:100852001A93A981BA81ED91A983BA831E2FE03040
:1008620019F0A12FD3DFF5CF188123960895AA930B
:10087200E7B3E06FE7BBBA9AB89AB99AC298C09840
:10088200C198E881E0937202E058E0936E02E88139
:10089200E054E0936F02A4E1B0E00E94090B0E94D1
:1008A200C2090E94C2090E94C209A0E270DF88EC5C
:1008B20090E00197F1F7A8E27EDFA4E07CDFA5E8F3
:1008C2007ADFA6E078DF94DF21960895BA93AA939F
:1008D2001A930A93AA81BB8112960E945F0D3097E8
:1008E20029F1AA81BB8114960E945F0D8F01309776
:1008F20061F00230E0E01E0780F0F80131978F01CD
:10090200AA81BB811496ED93FC93AA81BB811296B6
:100912000E94CA093197AC81A083AA81BB810E943F
:100922005F0DFF2312F00E94CA0906C0AA81BB8193
:10093200EFEFFFEFED93FC9319810881259608955F
:100942000E94D009E0E8EA83EFE3EB830E94950D71
:10095200EE85FF85EF3FAFEFFA0749F4E885F985A9
:10096200FA93EA93ACE7B1E00E94D607B5C0EF3F35
:10097200AFE7FA0749F4E885F985FA93EA93ADE718
:10098200B1E00E94D607A8C0AB85A73010F0E6E020
:10099200EB871B85E12F1150E03019F00E94D70937
:1009A200F9CFEC85FD856E857F850E948F0D21F440
:1009B20030E00E94D7092DC03B850E94E30909F06F
:1009C20008F40BC00E94D7090E94E30928F00E9494
:1009D200EE090E94F309F8CF0DC00E94E30940F42A
:1009E2000E94EE090E94FF090E94030A3150F5CFCE
:1009F2000E94D709EC85FD856E857F850E94080AD5
:100A02000E94030A0E94E30920F00E94EE090E945C
:100A1200F30910E0EB85E11798F1AC81BD818E817D
:100A22009F810E940F0A0E94080ADF01CB010E94E7
:100A32002D08EC83FD836E837F830E94EE090E9462
:100A420066090E2F0E94160A0E941D0AFF276627BA
:100A520077270E947F0BAC81BD818E819F810E948E
:100A6200090C0E94EE090E94220A0E94030AE12F49
:100A72001F5FE03079F60E94160AEEE2EC93CACFCD
:100A82000E94270A3197AA85A08330302CF4319531
:100A9200A885B985EDE203C0A885B985EBE2EC93A0
:100AA2000E94270A0E94270A3197BF01A32FEAE07A
:100AB2000E94E50CE05DDB01EC930E94270A31976E
:100AC200BF01A32FEAE00E94270DE05DDB01EC935A
:100AD200A885B985E0E0EC930E949C0D609608958C
:100AE200BA93AA93EF9761970E94930D10E0FE01CB
:100AF200E85AFF4F0190F081E02DE887F987FE0167
:100B0200EA5AFF4F0190F081E02DEE83FF83AE8120
:100B1200BF81E0E0F0E0ED93FC93DE01A45ABF4F09
:100B22000E94CA093197E4912E2FE03009F4E9C1FD
:100B3200E12FE03039F4253211F411E002C00E94B5
:100B42002D0ADEC1E130C1F4253219F40E942D0ACA
:100B5200D6C112E0E0E0ED8B00E02D3211F401E0AD
:100B6200CFC12B3219F4EBE2ED8BCAC1203219F45A
:100B7200E0E2ED8BC5C102C0E23039F450E013E08F
:100B8200203311F40068BCC102C0E33091F4203379
:100B920010F02A3308F007C0AAE05A9F502DE22F26
:100BA200E0535E0FADC140E02E3211F414E0A8C153
:100BB2000FC0E43099F4203310F02A3308F008C053
:100BC2000062AAE04A9F402DE22FE0534E0F98C1E7
:100BD2002C3619F4026015E093C103C0E53009F028
:100BE2008FC1E22FE33659F40E94340A0E943B0A75
:100BF2000E94340AA481AA930E94420A80C1E53469
:100C020011F0E53609F403C0E63609F048C0FE01EA
:100C12007696EE87FF870E94480A0E94630D0E9423
:100C22004F0A0E94540AAD85AA2332F0AD89AB3235
:100C320059F0A03281F017C00E94560A0E94130B8D
:100C42000E944F0AEDE2ED8B07FF05C0ED89EA93A2
:100C52000E94420A08C0EE85FF853196EE87FF8723
:100C62003197AD89A08305FF46E0263651F40E94F4
:100C7200560A0E94780D4A93AB89BC890E944408A7
:100C820009C00E94560A0E94780D4A932A93AC89A1
:100C9200BD8956DEFE0176960E945B0A1EC0E337CE
:100CA20039F40E94540A0E94630A0E945B0A0EC031
:100CB200E037C1F40E94540A0E94630AEE87FF875C
:100CC200AE85BF850E94EF071E2F08600F77403068
:100CD20011F0411708F001C0142F40E0E0E0EC8B66
:100CE20030E06DC0E43611F0E93611F4046002C060
:100CF200E537A1F4EAE0EC8B01FF08C0E0E0FAEC92
:100D02006AE97BE30E94680A1AE022C0E0E1F7E2A6
:100D120060E070E00E94680A15E01AC0E83511F43C
:100D2200086003C0E83709F0EAC0E0E1EC8B01FF9C
:100D320008C0E0E0F0E060E070E10E94680A18E0BC
:100D420007C0E0E0F0E160E070E00E94680A14E0B1
:100D5200403011F00F7701C041E001FF08C00E944E
:100D6200540A0E94480A14960E94630D0FC002FFA3
:100D720007C00E94540A0E94630A0E94D20C06C055
:100D82000E94540A0E94630A66277727EA87FB8734
:100D92006C877D8702FF12C0AD85AA2342F40E94B0
:100DA200560A0E94C40C0E944F0AEDE2ED8BED89B7
:100DB200E03019F01F5F4F5F01C00B7F342F00FD41
:100DC20014C0151710F4351708F00FC007FF08C03C
:100DD20002FF04C00B7F2D89115001C020E301C026
:100DE20020E20E942D0A5150ECCF141790F40061BA
:100DF20002FF06C00E946D0A09F051501150415085
:100E0200E0E3EA930E94420A503009F05150415007
:100E1200ECCF312FEC89E030B9F43030A1F003FF90
:100E220006C0EE85FF852591EE87FF8705C0AE855A
:100E3200BF852D91AE87BF870E942D0A503009F0E1
:100E420051503150EACF51C00E947F0A0E94020DD8
:100E52002E2F2A3030F003FF02C0295C01C0295A2C
:100E620001C0205D04FD21C0213360F4A889B98945
:100E72008A899B89A130E0E0BE07E0E08E07E0E0CE
:100E82009E0709F40BC0431740F4531710F000FFFC
:100E920001C010C020E207FF08C020E3006102FF8A
:100EA20004C00E946D0A09F051500E942D0A503070
:100EB20009F0515031500E947F0A0E94410D0E9458
:100EC2004F0AEC89A889B9898A899B89FF276627F5
:100ED20077270E94020D0E94680AE889F9896A89C7
:100EE2007B890E948F0D09F0AFCF00FF08C0503000
:100EF20031F05150E0E2EA930E94420AF8CF10E04A
:100F02000CCEAE81BF810E945F0D0E949A0DEF96BA
:100F12006F960895FF92F82E26970E94950D0E94D3
:100F2200880A309719F4EFEFFFEF23C0DE0116961F
:100F32000E94BC0C8D010E94880AEE83FF83E0E0D0
:100F4200E887E987DE011A960E94BC0C0E945F0DB9
:100F5200FA93EA931A930A93E7E6F4E0FA93EA9390
:100F6200DE011A96BDDD9F01AE81BF81E0E0EC9308
:100F7200F9010E949C0D2A96FF900895AA93E88198
:100F8200E295EF70AE2FAA0FAA0FEA0FEE0FA9910A
:100F9200AF70EA0F0895AA93A991EE27AA5012F012
:100FA200E05FFCCFA65FEA0F0895BA93AA93E99196
:100FB200F991A991B991CD0105900D920020E1F727
:100FC200FC010895BA93AA93A991B991EE27FF273C
:100FD2006D91662311F03196FBCF0895BA93AA93CF
:100FE200AA27BB27E991F9910590002011F01196EB
:100FF200FBCFFD0108950E947D0D7B816A81F981FD
:10100200E88177FB770F67FD7160972F9E5781F01C
:1010120078F0983190F4AA27BB27882708948795FF
:10102200B795A7959A95D1F7EA23FB23682305C0C4
:10103200E8947727EE27FF2766276F77769508F4DF
:10104200606877F9A991B99189919991EA17FB079B
:101052006807790797FB08950E947D0D0E946E0D27
:101062000E94FC070E94730D19F40E94690D09C0C9
:10107200E6F70E94690DA0E0B0E080E89FE30E94DD
:10108200B20B249608958BD1E0E0EA83EFE3EB8381
:101092001A930A93EB85FC85EF3FAFEFFA0731F421
:1010A2003DD2A4E8B1E00E94D60787C0EF3FAFE788
:1010B200FA0731F433D2A5E8B1E00E94D6077DC029
:1010C200AC85AA2352F4E985FA856B857C850E945A
:1010D200130B29D22DD2EDE2EC93A885A73010F0A4
:1010E200E6E0E8871885E12F1150E03021F027D2A1
:1010F20095D12AD2F8CF2DD20E94B90B14D210E08A
:10110200E0E0F0E060E87FE31FD223D20E949C0C73
:1011120068F015D273D118D21F5F173230F0FED1AA
:10112200A9E8B1E00E94D60748C0EFCF103021F401
:10113200FFD1E0E3EC931DC0E12F1150E030C9F084
:10114200FED16CD164D1DF01CB010E942D08FCD10C
:1011520000D2BBD00E2FECD16FD1F0E0F0D10E94C3
:10116200D20C0E947F0B0E94090CFCD16AD1DBD108
:10117200E3CFE885E030E9F0DBD1EEE2EC93E885FD
:10118200E150E887EF5FA9F0EDD138D1CCD1E98504
:10119200FA856B857C850E94460B0E2FC9D14CD1F6
:1011A200F0E0E0D10E94D20C0E947F0B4AD1BBD169
:1011B200E6CFAE81BF81E0E0EC93198108812D96E4
:1011C2000895BB27EAE0F0E00E94330DEC5AFF4F8E
:1011D200049002BA0895B0E0EAE0F0E00E94FD0C4B
:1011E200EC5AFF4F049002BA08950E94F903E6E414
:1011F200F2E0FA93EA93E4E6F0E0FA93EA93E091FC
:101202006602FF27662777270E94780DE091670222
:10121200FF27662777270E94780DE0916802FF2753
:10122200662777270E94780DE0916902FF276627DB
:1012320077270E94780DE0916A02FF2766277727B9
:101242000E94780DE0916B02FF27662777270E94A4
:10125200780D88E10E948B076C96A6E4B2E00E94AA
:1012620027040C947B010E94F903E0E0EA93A1E0D9
:101272000C94E8030E942704E0E0EA93A0E00C94B7
:10128200E8030E942704A4EFB1E00E94090BE0E00A
:10129200EA93A0E00C94E803A4EFB1E00E94090BEA
:1012A200ACE2B1E00C94090BE4E0F0E0FA93EA93CB
:1012B200E7E0F0E0FA93EA93A6E0B0E00C9476035C
:1012C200E0E0F0E060E271E408950E94570C0E94B1
:1012D200460B0895EA93A0E00E94E803E6E4F2E0F8
:1012E200FA93EA930895FF27662777270E94780DDD
:1012F2000895A6E4B2E00C9427048CE00E948B07C8
:101302006096F7CF0E94BD0AA0ED0C94F10A0E94EC
:10131200F10A0C94CC0A0E94BD0AA1ED0E94F10AC6
:10132200A1E00C94D60AAE2F0E94BF07A881B98112
:10133200EC930895A1E00E94D60AAE2F0C94BF0749
:10134200AA81BB81EC93A0E00C94D60A0E94F10A18
:10135200A8810E94CC07AE2F08950E94F10AA981AC
:101362000E94CC07AE2F08950E94F10AAA810E9422
:10137200CC07AE2F08950E94DC03A3E0B0E00C94EA
:10138200090BA0E30E94C80388EC90E00197F1F7F3
:101392000895ED91FD913196FE93EE930895BA93DF
:1013A200AA932497E0E0E883E9830895AC81BD81A4
:1013B2008E819F8185DF0E94090CEC83FD836E8301
:1013C2007F830895EC81FD816E817F81AC85BD852F
:1013D2008E859F850E949C0C0895AC85BD858E8567
:1013E2009F850895EDECFCEC6CEC7DE30E94090C0A
:1013F200EC87FD876E877F873F5F089561DF0E94DC
:10140200090C0895EC87FD876E877F870895A0E019
:10141200B0E080E09FE30E94B90B0895EDECFCEC94
:101422006CEC7DE30E94090C0895A885B98511969C
:10143200A887B98711970895E02FE05DEC93E02F1C
:1014420008950E94820D0E94B20B0895E885F985E5
:101452003196E887F98708952A93AF81B885E9859F
:10146200FA8509950895FE01E65AFF4F0190F08131
:10147200E02D08953497DE01A65ABF4FED93FC93F9
:101482000895AF81B885E985FA8509950895DE0149
:10149200A65ABF4F0D90BC91A02D0895EA87FB87F5
:1014A2006C877D870895DFDFE5CFEA85FB856C8554
:1014B2007D850895EE87FF87AE85BF850E94E3078D
:1014C2001E2F0895E4DF14960E945F0D0895E88BA5
:1014D200F98B6A8B7B8B08950B7FED89EA93DE0192
:1014E200A95ABF4F0D90BC91A02DFE01E75AFF4FA4
:1014F2000190F081E02D099550300895E889F9892D
:101502006A897B89AA85BB858C859D850895DE01C4
:101512001C960E94BC0C0E945F0D0895EE81FF8113
:10152200FA93EA930895E987FA876B877C8708958F
:10153200AE81BF811196AE83BF8311970895AA81B0
:10154200BB818C819D810895EA83FB836C837D83BB
:101552000895EA81FB816C817D81A985BA858B859D
:101562009C850895A985BA858B859C850895A89840
:10157200A998A09AA19815C0A198A098EE2700005A
:10158200999B0895989B089504D0A19A02D0A09A9D
:10159200E1E06DE007C0A19AA09A03D0A098F9DF1C
:1015A200A1986BE16A95F1F7089578E0A098F1DFD0
:1015B200989BFECFEEDF889499990894A09AF1DF68
:1015C200EE1F7A9599F77A2F772311F4A19801C02B
:1015D200A19ADFDFA098E5DFA09ADBDFA198D9CF3F
:1015E20078E0AA0F10F4A19801C0A19ADADFA098BE
:1015F200D0DF989BFECFCDDFA09A7A9591F7A19884
:10160200C8DFA098CEDFE1E09999EE27A09AC1CF7A
:10161200109639F080ED97E00197F1F7A8951197B0
:10162200C9F7089530976040704009F070580895E6
:10163200552342F4503811F4E0FF04C03196691F7B
:10164200791F6BF050E8572711F45F93CFC05F3FCB
:1016520031F0660F000C57956795752F08955F93CB
:1016620000200AF0CFC0C8C050E8192E1522880FFA
:10167200991F9527550F879550E8072E0522660F6B
:10168200771F7527550F67950895689401C0E894F0
:101692005F93F2DF703818F07F3F08F4A7C056E17D
:1016A200571BAAF4519558300EF4593030F0EFEF31
:1016B200FFEF6FEF7FE777F91AC077275523B9F06D
:1016C200EE0FFF1F661F771F5A95D1F710C07727BD
:1016D200583028F0EF2FF62F672F5850F9CF5523A7
:1016E20031F076956795F795E7955A95D1F70020F1
:1016F2000AF449D15F910895689401C0E894309743
:1017020060407040B1F0002426F0772312F4009478
:101712003AD1172E7EE1112032F07A95EE0FFF1F9B
:10172200661F111CF9CFEF2FF62F612D5F938ADF11
:101732005F9108954F93AF01FD01DA01AB01BC0146
:10174200CA01402D012C142E4F910895EA0FFB1F60
:10175200681F0895E095F0956095EF5FFF4F6F4F1A
:1017620008955F9381DF903871F150E8152604C027
:101772005F937ADF903839F1703821F1572F591B76
:101782002BF112F4D7DFFACF583118F0AA27BB2772
:101792008827583028F0AB2FB82F88275850F9CF18
:1017A200552329F08695B795A7955A95D9F7502DC7
:1017B200512572F0CBDF38F46795F795E79573956D
:1017C20013F420C0B7DF3EDF5F910895D8F7FBCF57
:1017D200EA1BFB0B680B51F010F40094BBDF66238D
:1017E20092F3EE0FFF1F661F7A95CBF7EE27FF27C6
:1017F200662777275F910895EFEFFFEF6FE77FEF9F
:101802005F910895EFEFFFEF6FE77FE75F91089534
:101812005F932ADF703851F3903841F30124089422
:10182200791F23F41CF300203AF3ECCF0F921F939D
:101832002F933F934F93112722279927689FA00147
:101842008F9F302D410D591F6B9F300D411D591F28
:101852008E9F27D0BF9F25D06A9F23D0BE9F1DD0C9
:10186200AF9F1BD0AE9F110D291F391F491F591F52
:10187200E32FF42F652F522F4F913F912F911F91FC
:101882000F9066232AF0550FEE1FFF1F661F02C03E
:1018920073954BF2CDDE5F910895100D211D391F16
:1018A20002C0200D311D491F591F08955F93DCDED0
:1018B200703821F411200AF49FCFA4CF903809F494
:1018C20095CF01240894970B1BF4D4F30020F3CF97
:1018D200792F1F932F933F934F9311241127222780
:1018E20033274427552790E2AE17BF0786074107E3
:1018F20030F0AE1BBF0B860B410B089401C08894DD
:10190200551F221F331F111CAA1FBB1F881F441FF4
:101912009A9551F7F901612D4F913F912F911F91A6
:10192200662332F0550FEE1FFF1F661F7A9543F2B2
:101932007FDE5F91089599239AF0772342F09717FB
:1019420048F029F4AE17BF07860720F031F09894CB
:101952008894089598940894089518948894089502
:101962007723C2F7971798F3A9F7EA17FB076807D7
:1019720088F399F3ECCF0024AF0DB01D0895F195D3
:10198200E195F0400895F09560957095E195FF4FCF
:101992006F4F7F4F0895FE2FFF0FFF0B6F2F7F2F8B
:1019A20008956F2F660F660B762F0895002498E036
:1019B200AA0F001C0E1A10F40E0E01C0A1609A9517
:1019C200B9F7EA2FA02D08955FD0F0DF0EF4E1956C
:1019D20008950024112490E1AA0FBB1F001C111CC2
:1019E2000E1A1F0A18F40E0E1F1E01C0A1609A954E
:1019F20099F7FD01D001089553D0EBDF0EF4BFDF5C
:101A020008953F934F935F93002411244427552751
:101A120030E2AA0FBB1F881F991F001C111C441F14
:101A2200551F0E1A1F0A460B570B28F40E0E1F1EC7
:101A3200461F571F01C0A1603A9559F7FD01BC012D
:101A4200D001CA015F914F913F910895E894A7FF99
:101A520002C0A1956894E7FDE195A8DFEA2F0EF494
:101A6200E1950895E894B7FF04C0A095B09511964A
:101A72006894F7FD84DFADDFFD010EF480DF089589
:101A8200C0DFFD01BC010895E894E7FF02C0E195C3
:101A92006894A7FF04C0A19500F8039400FA089582
:101AA200E894F7FF02C06BDF6894B7FF06C0A09509
:101AB200B095119600F8039400FA0895ED91FC9107
:101AC20011970895ED91FD916D917C911397089571
:101AD200E881F9816A817B810895A881B9818A812F
:101AE2009B810895E883F9836A837B8308957A93BF
:101AF2006A93FA93EA9308959A938A93BA93AA936C
:101B02000895182E862F612D192E972F712D1B2EB9
:101B1200BF2FF12D1A2EAE2FE12D08953097604080
:101B2200704008955A934A933A932A931A930A93C8
:101B320008955D814C813B812A8119810881089534
:00000001FF
